{
  "_format": "hh-sol-artifact-1",
  "contractName": "PrivateMusicRoyalty",
  "sourceName": "contracts/PrivateMusicRoyalty.sol",
  "abi": [
    {
      "inputs": [],
      "stateMutability": "nonpayable",
      "type": "constructor"
    },
    {
      "inputs": [],
      "name": "HandlesAlreadySavedForRequestID",
      "type": "error"
    },
    {
      "anonymous": false,
      "inputs": [
        {
          "indexed": true,
          "internalType": "uint256",
          "name": "trackId",
          "type": "uint256"
        },
        {
          "indexed": true,
          "internalType": "address",
          "name": "holder",
          "type": "address"
        }
      ],
      "name": "RightsHolderAdded",
      "type": "event"
    },
    {
      "anonymous": false,
      "inputs": [
        {
          "indexed": true,
          "internalType": "address",
          "name": "holder",
          "type": "address"
        }
      ],
      "name": "RightsHolderVerified",
      "type": "event"
    },
    {
      "anonymous": false,
      "inputs": [
        {
          "indexed": true,
          "internalType": "uint256",
          "name": "poolId",
          "type": "uint256"
        },
        {
          "indexed": true,
          "internalType": "address",
          "name": "claimant",
          "type": "address"
        }
      ],
      "name": "RoyaltyClaimed",
      "type": "event"
    },
    {
      "anonymous": false,
      "inputs": [
        {
          "indexed": true,
          "internalType": "uint256",
          "name": "poolId",
          "type": "uint256"
        },
        {
          "indexed": true,
          "internalType": "address",
          "name": "recipient",
          "type": "address"
        }
      ],
      "name": "RoyaltyDistributed",
      "type": "event"
    },
    {
      "anonymous": false,
      "inputs": [
        {
          "indexed": true,
          "internalType": "uint256",
          "name": "poolId",
          "type": "uint256"
        },
        {
          "indexed": true,
          "internalType": "uint256",
          "name": "trackId",
          "type": "uint256"
        }
      ],
      "name": "RoyaltyPoolCreated",
      "type": "event"
    },
    {
      "anonymous": false,
      "inputs": [
        {
          "indexed": true,
          "internalType": "uint256",
          "name": "trackId",
          "type": "uint256"
        },
        {
          "indexed": true,
          "internalType": "address",
          "name": "creator",
          "type": "address"
        },
        {
          "indexed": false,
          "internalType": "string",
          "name": "metadataURI",
          "type": "string"
        }
      ],
      "name": "TrackRegistered",
      "type": "event"
    },
    {
      "inputs": [
        {
          "internalType": "uint256",
          "name": "poolId",
          "type": "uint256"
        }
      ],
      "name": "claimRoyalty",
      "outputs": [],
      "stateMutability": "nonpayable",
      "type": "function"
    },
    {
      "inputs": [
        {
          "internalType": "uint256",
          "name": "trackId",
          "type": "uint256"
        }
      ],
      "name": "createRoyaltyPool",
      "outputs": [],
      "stateMutability": "payable",
      "type": "function"
    },
    {
      "inputs": [
        {
          "internalType": "uint256",
          "name": "trackId",
          "type": "uint256"
        }
      ],
      "name": "deactivateTrack",
      "outputs": [],
      "stateMutability": "nonpayable",
      "type": "function"
    },
    {
      "inputs": [
        {
          "internalType": "uint256",
          "name": "poolId",
          "type": "uint256"
        }
      ],
      "name": "distributeRoyalties",
      "outputs": [],
      "stateMutability": "nonpayable",
      "type": "function"
    },
    {
      "inputs": [
        {
          "internalType": "uint256",
          "name": "poolId",
          "type": "uint256"
        },
        {
          "internalType": "address",
          "name": "holder",
          "type": "address"
        }
      ],
      "name": "getClaimStatus",
      "outputs": [
        {
          "internalType": "bool",
          "name": "claimed",
          "type": "bool"
        }
      ],
      "stateMutability": "view",
      "type": "function"
    },
    {
      "inputs": [],
      "name": "getContractInfo",
      "outputs": [
        {
          "internalType": "uint256",
          "name": "totalTracksCount",
          "type": "uint256"
        },
        {
          "internalType": "uint256",
          "name": "totalRoyaltyPoolsCount",
          "type": "uint256"
        },
        {
          "internalType": "address",
          "name": "contractOwner",
          "type": "address"
        }
      ],
      "stateMutability": "view",
      "type": "function"
    },
    {
      "inputs": [
        {
          "internalType": "uint256",
          "name": "poolId",
          "type": "uint256"
        },
        {
          "internalType": "address",
          "name": "holder",
          "type": "address"
        }
      ],
      "name": "getEncryptedPayment",
      "outputs": [
        {
          "internalType": "euint64",
          "name": "",
          "type": "bytes32"
        }
      ],
      "stateMutability": "view",
      "type": "function"
    },
    {
      "inputs": [
        {
          "internalType": "uint256",
          "name": "trackId",
          "type": "uint256"
        },
        {
          "internalType": "address",
          "name": "holder",
          "type": "address"
        }
      ],
      "name": "getEncryptedShare",
      "outputs": [
        {
          "internalType": "euint32",
          "name": "",
          "type": "bytes32"
        }
      ],
      "stateMutability": "view",
      "type": "function"
    },
    {
      "inputs": [
        {
          "internalType": "uint256",
          "name": "poolId",
          "type": "uint256"
        }
      ],
      "name": "getPoolInfo",
      "outputs": [
        {
          "internalType": "uint256",
          "name": "trackId",
          "type": "uint256"
        },
        {
          "internalType": "bool",
          "name": "distributed",
          "type": "bool"
        },
        {
          "internalType": "uint256",
          "name": "createdAt",
          "type": "uint256"
        },
        {
          "internalType": "address[]",
          "name": "payees",
          "type": "address[]"
        }
      ],
      "stateMutability": "view",
      "type": "function"
    },
    {
      "inputs": [
        {
          "internalType": "address",
          "name": "holder",
          "type": "address"
        }
      ],
      "name": "getRightsHolderInfo",
      "outputs": [
        {
          "internalType": "bool",
          "name": "verified",
          "type": "bool"
        },
        {
          "internalType": "uint256",
          "name": "registeredAt",
          "type": "uint256"
        },
        {
          "internalType": "uint256[]",
          "name": "trackIds",
          "type": "uint256[]"
        }
      ],
      "stateMutability": "view",
      "type": "function"
    },
    {
      "inputs": [
        {
          "internalType": "uint256",
          "name": "trackId",
          "type": "uint256"
        }
      ],
      "name": "getTrackInfo",
      "outputs": [
        {
          "internalType": "bool",
          "name": "active",
          "type": "bool"
        },
        {
          "internalType": "string",
          "name": "metadataURI",
          "type": "string"
        },
        {
          "internalType": "uint256",
          "name": "createdAt",
          "type": "uint256"
        },
        {
          "internalType": "address[]",
          "name": "holders",
          "type": "address[]"
        },
        {
          "internalType": "uint256",
          "name": "rightsHoldersCount",
          "type": "uint256"
        }
      ],
      "stateMutability": "view",
      "type": "function"
    },
    {
      "inputs": [
        {
          "internalType": "uint256",
          "name": "trackId",
          "type": "uint256"
        },
        {
          "internalType": "address",
          "name": "holder",
          "type": "address"
        }
      ],
      "name": "isRightsHolder",
      "outputs": [
        {
          "internalType": "bool",
          "name": "",
          "type": "bool"
        }
      ],
      "stateMutability": "view",
      "type": "function"
    },
    {
      "inputs": [],
      "name": "owner",
      "outputs": [
        {
          "internalType": "address",
          "name": "",
          "type": "address"
        }
      ],
      "stateMutability": "view",
      "type": "function"
    },
    {
      "inputs": [
        {
          "internalType": "address",
          "name": "",
          "type": "address"
        }
      ],
      "name": "pendingClaims",
      "outputs": [
        {
          "internalType": "uint256",
          "name": "poolId",
          "type": "uint256"
        },
        {
          "internalType": "address",
          "name": "claimer",
          "type": "address"
        },
        {
          "internalType": "bool",
          "name": "processed",
          "type": "bool"
        }
      ],
      "stateMutability": "view",
      "type": "function"
    },
    {
      "inputs": [
        {
          "internalType": "uint256",
          "name": "requestId",
          "type": "uint256"
        },
        {
          "internalType": "uint64",
          "name": "paymentAmount",
          "type": "uint64"
        },
        {
          "internalType": "bytes[]",
          "name": "",
          "type": "bytes[]"
        }
      ],
      "name": "processClaimPayment",
      "outputs": [],
      "stateMutability": "nonpayable",
      "type": "function"
    },
    {
      "inputs": [],
      "name": "registerRightsHolder",
      "outputs": [],
      "stateMutability": "nonpayable",
      "type": "function"
    },
    {
      "inputs": [
        {
          "internalType": "string",
          "name": "metadataURI",
          "type": "string"
        },
        {
          "internalType": "address[]",
          "name": "holders",
          "type": "address[]"
        },
        {
          "internalType": "uint32[]",
          "name": "shares",
          "type": "uint32[]"
        }
      ],
      "name": "registerTrack",
      "outputs": [],
      "stateMutability": "nonpayable",
      "type": "function"
    },
    {
      "inputs": [
        {
          "internalType": "address",
          "name": "",
          "type": "address"
        }
      ],
      "name": "rightsHolders",
      "outputs": [
        {
          "internalType": "address",
          "name": "holder",
          "type": "address"
        },
        {
          "internalType": "bool",
          "name": "verified",
          "type": "bool"
        },
        {
          "internalType": "uint256",
          "name": "registeredAt",
          "type": "uint256"
        }
      ],
      "stateMutability": "view",
      "type": "function"
    },
    {
      "inputs": [
        {
          "internalType": "uint256",
          "name": "",
          "type": "uint256"
        }
      ],
      "name": "royaltyPools",
      "outputs": [
        {
          "internalType": "uint256",
          "name": "poolId",
          "type": "uint256"
        },
        {
          "internalType": "uint256",
          "name": "trackId",
          "type": "uint256"
        },
        {
          "internalType": "euint64",
          "name": "encryptedTotalAmount",
          "type": "bytes32"
        },
        {
          "internalType": "bool",
          "name": "distributed",
          "type": "bool"
        },
        {
          "internalType": "uint256",
          "name": "createdAt",
          "type": "uint256"
        }
      ],
      "stateMutability": "view",
      "type": "function"
    },
    {
      "inputs": [],
      "name": "totalRoyaltyPools",
      "outputs": [
        {
          "internalType": "uint256",
          "name": "",
          "type": "uint256"
        }
      ],
      "stateMutability": "view",
      "type": "function"
    },
    {
      "inputs": [],
      "name": "totalTracks",
      "outputs": [
        {
          "internalType": "uint256",
          "name": "",
          "type": "uint256"
        }
      ],
      "stateMutability": "view",
      "type": "function"
    },
    {
      "inputs": [
        {
          "internalType": "uint256",
          "name": "",
          "type": "uint256"
        },
        {
          "internalType": "address",
          "name": "",
          "type": "address"
        }
      ],
      "name": "trackRightsHolders",
      "outputs": [
        {
          "internalType": "bool",
          "name": "",
          "type": "bool"
        }
      ],
      "stateMutability": "view",
      "type": "function"
    },
    {
      "inputs": [
        {
          "internalType": "uint256",
          "name": "",
          "type": "uint256"
        }
      ],
      "name": "tracks",
      "outputs": [
        {
          "internalType": "uint256",
          "name": "trackId",
          "type": "uint256"
        },
        {
          "internalType": "bool",
          "name": "active",
          "type": "bool"
        },
        {
          "internalType": "string",
          "name": "metadataURI",
          "type": "string"
        },
        {
          "internalType": "uint256",
          "name": "createdAt",
          "type": "uint256"
        }
      ],
      "stateMutability": "view",
      "type": "function"
    },
    {
      "inputs": [
        {
          "internalType": "uint256",
          "name": "trackId",
          "type": "uint256"
        },
        {
          "internalType": "string",
          "name": "newMetadataURI",
          "type": "string"
        }
      ],
      "name": "updateTrackMetadata",
      "outputs": [],
      "stateMutability": "nonpayable",
      "type": "function"
    },
    {
      "inputs": [
        {
          "internalType": "address",
          "name": "holder",
          "type": "address"
        }
      ],
      "name": "verifyRightsHolder",
      "outputs": [],
      "stateMutability": "nonpayable",
      "type": "function"
    }
  ],
  "bytecode": "0x608060405234801561000f575f80fd5b5061018a6100ae604080516080810182525f808252602082018190529181018290526060810191909152506040805160808101825273687820221192c5b662b25367f70076a37bc79b6c815273848b0066793bcc60346da1f49049357399b8d5956020820152731364cbbf2cdf5032c47d8226a6f6fbd2afcdacac9181019190915273bc91f3dad1a5f19f8390c400196e58073b6a0bc4606082015290565b80517fed8d60e34876f751cc8b014c560745351147d9de11b9347c854e881b128ea60080546001600160a01b03199081166001600160a01b039384161790915560208301517fed8d60e34876f751cc8b014c560745351147d9de11b9347c854e881b128ea6018054831691841691909117905560408301517fed8d60e34876f751cc8b014c560745351147d9de11b9347c854e881b128ea6028054831691841691909117905560608301517fed8d60e34876f751cc8b014c560745351147d9de11b9347c854e881b128ea6038054909216921691909117905550565b7f5ea69329017273582817d320489fbd94f775580e90c092699ca6f3d12fdf7d0080546001600160a01b03191673a02cda4ca3a71d7c46997716f4283aa851c288121790555f80546001600160a01b031916331781556001819055600255612750806101f55f395ff3fe608060405260043610610161575f3560e01c80636c1bc5b6116100cd578063b9cf8eaf11610087578063ca78533d11610062578063ca78533d1461049d578063d5a186d214610509578063d92bf94614610582578063e039a88a146105ef575f80fd5b8063b9cf8eaf14610422578063baef810314610436578063c22274691461047e575f80fd5b80636c1bc5b61461032157806378ae02ee146103365780637cc1f867146103665780638da5cb5b1461039e578063a2e34586146103d4578063b07cb36514610403575f80fd5b80633dcb67b01161011e5780633dcb67b01461025457806340dee0b51461028257806358cc8a37146102a55780635c0c900b146102c4578063607d6337146102e3578063665a4fb814610302575f80fd5b806303b4ff9f1461016557806309925363146101995780631886122f146101ba5780632dfd1cf6146101d95780632f380b35146101ec5780633a496e631461021b575b5f80fd5b348015610170575f80fd5b5061018461017f366004611f2a565b61060e565b60405190151581526020015b60405180910390f35b3480156101a4575f80fd5b506101b86101b336600461200c565b61063a565b005b3480156101c5575f80fd5b506101b86101d43660046120f0565b6106c3565b6101b86101e73660046121cb565b610b55565b3480156101f7575f80fd5b5061020b6102063660046121cb565b610cc6565b6040516101909493929190612225565b348015610226575f80fd5b50610184610235366004611f2a565b600660209081525f928352604080842090915290825290205460ff1681565b34801561025f575f80fd5b5061027361026e36600461224b565b610d58565b60405161019093929190612264565b34801561028d575f80fd5b5061029760015481565b604051908152602001610190565b3480156102b0575f80fd5b506101b86102bf3660046121cb565b610de4565b3480156102cf575f80fd5b506101b86102de3660046121cb565b610e64565b3480156102ee575f80fd5b506102976102fd366004611f2a565b611054565b34801561030d575f80fd5b506101b861031c3660046122bb565b611178565b34801561032c575f80fd5b5061029760025481565b348015610341575f80fd5b506103556103503660046121cb565b611367565b6040516101909594939291906123dc565b348015610371575f80fd5b506001546002545f546040805193845260208401929092526001600160a01b031690820152606001610190565b3480156103a9575f80fd5b505f546103bc906001600160a01b031681565b6040516001600160a01b039091168152602001610190565b3480156103df575f80fd5b506103f36103ee3660046121cb565b611498565b6040516101909493929190612421565b34801561040e575f80fd5b506101b861041d3660046121cb565b61154b565b34801561042d575f80fd5b506101b861170e565b348015610441575f80fd5b50610184610450366004611f2a565b5f8281526004602090815260408083206001600160a01b038516845260060190915290205460ff1692915050565b348015610489575f80fd5b506101b861049836600461224b565b6117f3565b3480156104a8575f80fd5b506104e46104b736600461224b565b60076020525f9081526040902080546001909101546001600160a01b03811690600160a01b900460ff1683565b604080519384526001600160a01b039092166020840152151590820152606001610190565b348015610514575f80fd5b506105586105233660046121cb565b600460208190525f91825260409091208054600182015460028301546003840154939094015491939092909160ff9091169085565b6040805195865260208601949094529284019190915215156060830152608082015260a001610190565b34801561058d575f80fd5b506105ca61059c36600461224b565b60056020525f9081526040902080546001909101546001600160a01b03821691600160a01b900460ff169083565b604080516001600160a01b039094168452911515602084015290820152606001610190565b3480156105fa575f80fd5b50610297610609366004611f2a565b6118f4565b5f8281526006602090815260408083206001600160a01b038516845290915290205460ff165b92915050565b5f828152600660209081526040808320338452909152902054829060ff166106a35760405162461bcd60e51b81526020600482015260176024820152762737ba103a3930b1b5903934b3b43a39903437b63232b960491b60448201526064015b60405180910390fd5b5f8381526003602052604090206004016106bd83826124d5565b50505050565b335f90815260056020526040902054600160a01b900460ff166107285760405162461bcd60e51b815260206004820152601a60248201527f4e6f742076657269666965642072696768747320686f6c646572000000000000604482015260640161069a565b80518251146107845760405162461bcd60e51b815260206004820152602260248201527f486f6c6465727320616e6420736861726573206c656e677468206d69736d61746044820152610c6d60f31b606482015260840161069a565b5f8251116107e05760405162461bcd60e51b8152602060048201526024808201527f4d7573742068617665206174206c65617374206f6e652072696768747320686f604482015263363232b960e11b606482015260840161069a565b5f805b825181101561081b578281815181106107fe576107fe612595565b60200260200101518261081191906125bd565b91506001016107e3565b508063ffffffff166127101461087f5760405162461bcd60e51b8152602060048201526024808201527f546f74616c20736861726573206d75737420657175616c2031303030302028316044820152633030252960e01b606482015260840161069a565b60018054905f61088e836125e1565b909155505060015482515f9067ffffffffffffffff8111156108b2576108b2611f54565b6040519080825280602002602001820160405280156108db578160200160208202803683370190505b5090505f5b84518110156109915761090b8582815181106108fe576108fe612595565b6020026020010151611994565b82828151811061091d5761091d612595565b60200260200101818152505061094b82828151811061093e5761093e612595565b60200260200101516119a6565b5061098882828151811061096157610961612595565b602002602001015187838151811061097b5761097b612595565b60200260200101516119b5565b506001016108e0565b506040805160c0810182528381526020808201888152828401859052600160608401819052608084018b90524260a08501525f87815260038452949094208351815590518051939491936109ed93928501929190910190611e27565b5060408201518051610a09916002840191602090910190611e86565b50606082015160038201805460ff191691151591909117905560808201516004820190610a3690826124d5565b5060a082015181600501559050505f5b8551811015610b0a575f838152600660205260408120875160019290899085908110610a7457610a74612595565b60200260200101516001600160a01b03166001600160a01b031681526020019081526020015f205f6101000a81548160ff02191690831515021790555060055f878381518110610ac657610ac6612595565b6020908102919091018101516001600160a01b03168252818101929092526040015f9081206002018054600181810183559183529290912090910184905501610a46565b50336001600160a01b0316827f67d46dd0f2368361b2bf0bef363a15c05ae7224691c4a27ba6b536ef0b3e87d188604051610b4591906125f9565b60405180910390a3505050505050565b5f818152600360208190526040909120015460ff16610bb65760405162461bcd60e51b815260206004820152601b60248201527f547261636b206e6f7420666f756e64206f7220696e6163746976650000000000604482015260640161069a565b5f3411610c145760405162461bcd60e51b815260206004820152602660248201527f4d7573742073656e642045544820666f7220726f79616c747920646973747269604482015265313aba34b7b760d11b606482015260840161069a565b60028054905f610c23836125e1565b90915550506002545f610c35346119c7565b9050610c40816119a6565b505f8281526004602081815260408084208681556001808201899055600282018790556003808301805460ff19169055429583019590955588865293909252909220018054610c93916007840191611ebf565b50604051849084907fc25ca0c0902e0dcc8dfe489a7d97f7adb7224dd4f022a206d10c244d1c39a8b2905f90a350505050565b5f81815260046020818152604080842060018101546003820154948201546007830180548551818802810188019096528086528897889760609760ff9092169493928391830182828015610d4157602002820191905f5260205f20905b81546001600160a01b03168152600190910190602001808311610d23575b505050505090509450945094509450509193509193565b6001600160a01b0381165f908152600560209081526040808320805460018201546002830180548551818802810188019096528086528796606096600160a01b90950460ff1694918391830182828015610dcf57602002820191905f5260205f20905b815481526020019060010190808311610dbb575b50505050509050935093509350509193909250565b5f818152600660209081526040808320338452909152902054819060ff16610e485760405162461bcd60e51b81526020600482015260176024820152762737ba103a3930b1b5903934b3b43a39903437b63232b960491b604482015260640161069a565b505f90815260036020819052604090912001805460ff19169055565b5f818152600460205260409020600381015460ff16610ec55760405162461bcd60e51b815260206004820152601d60248201527f526f79616c74696573206e6f7420796574206469737472696275746564000000604482015260640161069a565b335f90815260068201602052604090205460ff1615610f185760405162461bcd60e51b815260206004820152600f60248201526e105b1c9958591e4818db185a5b5959608a1b604482015260640161069a565b60018101545f90815260066020908152604080832033845290915290205460ff16610f905760405162461bcd60e51b815260206004820152602260248201527f4e6f7420612072696768747320686f6c64657220666f72207468697320747261604482015261636b60f01b606482015260840161069a565b6040805160018082528183019092525f916020808301908036833701905050335f908152600584016020526040902054909150815f81518110610fd557610fd5612595565b60209081029190910181019190915260408051606081018252858152338184018181525f8385018181529281526007909552929093209051815590516001909101805492511515600160a01b026001600160a81b03199093166001600160a01b03909216919091179190911790556106bd81630ccb49f760e31b6119dd565b5f8281526006602090815260408083206001600160a01b038516845290915281205460ff166110bb5760405162461bcd60e51b81526020600482015260136024820152722737ba1030903934b3b43a39903437b63232b960691b604482015260640161069a565b5f838152600360205260408120905b600182015481101561113d57836001600160a01b03168260010182815481106110f5576110f5612595565b5f918252602090912001546001600160a01b0316036111355781600201818154811061112357611123612595565b905f5260205f20015492505050610634565b6001016110ca565b5060405162461bcd60e51b815260206004820152600f60248201526e14da185c99481b9bdd08199bdd5b99608a1b604482015260640161069a565b5f83116111bc5760405162461bcd60e51b8152602060048201526012602482015271125b9d985b1a59081c995c5d595cdd08125160721b604482015260640161069a565b335f8181526007602052604090206001810154600160a01b900460ff16156112265760405162461bcd60e51b815260206004820152601760248201527f436c61696d20616c72656164792070726f636573736564000000000000000000604482015260640161069a565b80545f9081526004602090815260408083206001600160a01b0386168452600681019092529091205460ff16156112915760405162461bcd60e51b815260206004820152600f60248201526e105b1c9958591e4818db185a5b5959608a1b604482015260640161069a565b5f61129e6127108761260b565b6001600160a01b0385165f9081526006840160205260409020805460ff191660019081179091558401805460ff60a01b1916600160a01b179055905067ffffffffffffffff811615611328576040516001600160a01b0385169067ffffffffffffffff831680156108fc02915f818181858888f19350505050158015611326573d5f803e3d5ffd5b505b82546040516001600160a01b03861691907f73318988ae53e30a7d35bc3145a2076b735d435774e21d321178a3c2b9c04ba5905f90a350505050505050565b5f8181526003602081905260408220908101546005820154600183018054600485018054606096889688968896929560ff90921694939092919084906113ac90612452565b80601f01602080910402602001604051908101604052809291908181526020018280546113d890612452565b80156114235780601f106113fa57610100808354040283529160200191611423565b820191905f5260205f20905b81548152906001019060200180831161140657829003601f168201915b505050505093508180548060200260200160405190810160405280929190818152602001828054801561147d57602002820191905f5260205f20905b81546001600160a01b0316815260019091019060200180831161145f575b50505050509150955095509550955095505091939590929450565b600360208190525f918252604090912080549181015460048201805460ff90921692916114c490612452565b80601f01602080910402602001604051908101604052809291908181526020018280546114f090612452565b801561153b5780601f106115125761010080835404028352916020019161153b565b820191905f5260205f20905b81548152906001019060200180831161151e57829003601f168201915b5050505050908060050154905084565b5f818152600460205260409020600381015460ff16156115ad5760405162461bcd60e51b815260206004820152601d60248201527f526f79616c7469657320616c7265616479206469737472696275746564000000604482015260640161069a565b80545f036115ee5760405162461bcd60e51b815260206004820152600e60248201526d141bdbdb081b9bdd08199bdd5b9960921b604482015260640161069a565b60018101545f908152600360205260408120905b60018201548110156116fb575f82600101828154811061162457611624612595565b905f5260205f20015f9054906101000a90046001600160a01b031690505f611675856002015461167086600201868154811061166257611662612595565b905f5260205f2001546119f0565b6119fc565b6001600160a01b0383165f9081526005870160209081526040808320849055600689019091529020805460ff1916905590506116b0816119a6565b506116bb81836119b5565b506040516001600160a01b0383169087907f229f939144a134242108337c24678544938a87982037f599b324d7aaa1575ca9905f90a35050600101611602565b5050600301805460ff1916600117905550565b335f90815260056020526040902054600160a01b900460ff16156117695760405162461bcd60e51b8152602060048201526012602482015271105b1c9958591e481c9959da5cdd195c995960721b604482015260640161069a565b60408051608081018252338082525f602080840182815242858701908152865184815280840188526060870190815294845260058352959092208451815493511515600160a01b026001600160a81b03199094166001600160a01b03909116179290921782559351600182015590518051929391926117ee9260028501920190611e86565b505050565b5f546001600160a01b0316331461183d5760405162461bcd60e51b815260206004820152600e60248201526d139bdd08185d5d1a1bdc9a5e995960921b604482015260640161069a565b6001600160a01b038181165f90815260056020526040902054166118a35760405162461bcd60e51b815260206004820152601c60248201527f52696768747320686f6c646572206e6f74207265676973746572656400000000604482015260640161069a565b6001600160a01b0381165f81815260056020526040808220805460ff60a01b1916600160a01b179055517fe347f9ffd74f7a1a9f96a0562fa196b863ad89e090e32d1776bbaaab45e702ac9190a250565b5f828152600460209081526040808320600101548352600682528083206001600160a01b038516845290915281205460ff166119685760405162461bcd60e51b81526020600482015260136024820152722737ba1030903934b3b43a39903437b63232b960691b604482015260640161069a565b505f8281526004602090815260408083206001600160a01b038516845260050190915290205492915050565b5f6106348263ffffffff166004611a2a565b5f6119b18230611ad4565b5090565b5f6119c08383611ad4565b5090919050565b5f6106348267ffffffffffffffff166005611a2a565b5f6119e983835f611b4a565b9392505050565b5f610634826005611c83565b5f82611a0e57611a0b5f6119c7565b92505b81611a1f57611a1c5f6119c7565b91505b6119e983835f611ce5565b7fed8d60e34876f751cc8b014c560745351147d9de11b9347c854e881b128ea60154604051639cd07acb60e01b81525f915f805160206126fb833981519152916001600160a01b0390911690639cd07acb90611a8c908790879060040161265d565b6020604051808303815f875af1158015611aa8573d5f803e3d5ffd5b505050506040513d601f19601f82011682018060405250810190611acc9190612671565b949350505050565b5f5f805160206126fb8339815191528054604051635ca4b5b160e11b8152600481018690526001600160a01b03858116602483015292935091169063b9496b62906044015f604051808303815f87803b158015611b2f575f80fd5b505af1158015611b41573d5f803e3d5ffd5b50505050505050565b7f5ea69329017273582817d320489fbd94f775580e90c092699ca6f3d12fdf7d01545f805160206126fb8339815191528054604051637d6e912360e11b81527f5ea69329017273582817d320489fbd94f775580e90c092699ca6f3d12fdf7d0092916001600160a01b03169063fadd224690611bca9089906004016126b7565b5f604051808303815f87803b158015611be1575f80fd5b505af1158015611bf3573d5f803e3d5ffd5b50508354604051633263b83b60e01b81526001600160a01b039091169250633263b83b91508690611c2c9087908b908b906004016126c9565b5f604051808303818588803b158015611c43575f80fd5b505af1158015611c55573d5f803e3d5ffd5b5050505050611c648387611d9a565b600182018054905f611c75836125e1565b919050555050509392505050565b7fed8d60e34876f751cc8b014c560745351147d9de11b9347c854e881b128ea601546040516307227b9160e21b81525f915f805160206126fb833981519152916001600160a01b0390911690631c89ee4490611a8c908790879060040161265d565b5f808215611cf85750600160f81b611cfb565b505f5b5f5f805160206126fb8339815191526001810154604051630afe14ad60e31b815260048101899052602481018890526001600160f81b0319851660448201529192506001600160a01b0316906357f0a568906064016020604051808303815f875af1158015611d6c573d5f803e3d5ffd5b505050506040513d601f19601f82011682018060405250810190611d909190612671565b9695505050505050565b5f8281527f5ea69329017273582817d320489fbd94f775580e90c092699ca6f3d12fdf7d0260205260409020547f5ea69329017273582817d320489fbd94f775580e90c092699ca6f3d12fdf7d009015611e0757604051633f06d22b60e01b815260040160405180910390fd5b5f838152600282016020908152604090912083516106bd92850190611e86565b828054828255905f5260205f20908101928215611e7a579160200282015b82811115611e7a57825182546001600160a01b0319166001600160a01b03909116178255602090920191600190910190611e45565b506119b1929150611efb565b828054828255905f5260205f20908101928215611e7a579160200282015b82811115611e7a578251825591602001919060010190611ea4565b828054828255905f5260205f20908101928215611e7a575f5260205f209182015b82811115611e7a578254825591600101919060010190611ee0565b5b808211156119b1575f8155600101611efc565b80356001600160a01b0381168114611f25575f80fd5b919050565b5f8060408385031215611f3b575f80fd5b82359150611f4b60208401611f0f565b90509250929050565b634e487b7160e01b5f52604160045260245ffd5b604051601f8201601f1916810167ffffffffffffffff81118282101715611f9157611f91611f54565b604052919050565b5f67ffffffffffffffff831115611fb257611fb2611f54565b611fc5601f8401601f1916602001611f68565b9050828152838383011115611fd8575f80fd5b828260208301375f602084830101529392505050565b5f82601f830112611ffd575f80fd5b6119e983833560208501611f99565b5f806040838503121561201d575f80fd5b82359150602083013567ffffffffffffffff81111561203a575f80fd5b61204685828601611fee565b9150509250929050565b5f67ffffffffffffffff82111561206957612069611f54565b5060051b60200190565b5f82601f830112612082575f80fd5b8135602061209761209283612050565b611f68565b8083825260208201915060208460051b8701019350868411156120b8575f80fd5b602086015b848110156120e557803563ffffffff811681146120d8575f80fd5b83529183019183016120bd565b509695505050505050565b5f805f60608486031215612102575f80fd5b833567ffffffffffffffff80821115612119575f80fd5b61212587838801611fee565b945060209150818601358181111561213b575f80fd5b8601601f8101881361214b575f80fd5b803561215961209282612050565b81815260059190911b8201840190848101908a831115612177575f80fd5b928501925b8284101561219c5761218d84611f0f565b8252928501929085019061217c565b965050505060408601359150808211156121b4575f80fd5b506121c186828701612073565b9150509250925092565b5f602082840312156121db575f80fd5b5035919050565b5f815180845260208085019450602084015f5b8381101561221a5781516001600160a01b0316875295820195908201906001016121f5565b509495945050505050565b8481528315156020820152826040820152608060608201525f611d9060808301846121e2565b5f6020828403121561225b575f80fd5b6119e982611f0f565b5f6060820185151583526020856020850152606060408501528185518084526080860191506020870193505f5b818110156122ad57845183529383019391830191600101612291565b509098975050505050505050565b5f805f606084860312156122cd575f80fd5b8335925060208085013567ffffffffffffffff80821682146122ed575f80fd5b9093506040908682013581811115612303575f80fd5b8701601f81018913612313575f80fd5b803561232161209282612050565b81815260059190911b8201850190858101908b83111561233f575f80fd5b8684015b8381101561238757803586811115612359575f80fd5b8501603f81018e13612369575f80fd5b6123798e8a8301358a8401611f99565b845250918701918701612343565b50809750505050505050509250925092565b5f81518084525f5b818110156123bd576020818501810151868301820152016123a1565b505f602082860101526020601f19601f83011685010191505092915050565b851515815260a060208201525f6123f660a0830187612399565b856040840152828103606084015261240e81866121e2565b9150508260808301529695505050505050565b8481528315156020820152608060408201525f6124416080830185612399565b905082606083015295945050505050565b600181811c9082168061246657607f821691505b60208210810361248457634e487b7160e01b5f52602260045260245ffd5b50919050565b601f8211156117ee57805f5260205f20601f840160051c810160208510156124af5750805b601f840160051c820191505b818110156124ce575f81556001016124bb565b5050505050565b815167ffffffffffffffff8111156124ef576124ef611f54565b612503816124fd8454612452565b8461248a565b602080601f831160018114612536575f841561251f5750858301515b5f19600386901b1c1916600185901b17855561258d565b5f85815260208120601f198616915b8281101561256457888601518255948401946001909101908401612545565b508582101561258157878501515f19600388901b60f8161c191681555b505060018460011b0185555b505050505050565b634e487b7160e01b5f52603260045260245ffd5b634e487b7160e01b5f52601160045260245ffd5b63ffffffff8181168382160190808211156125da576125da6125a9565b5092915050565b5f600182016125f2576125f26125a9565b5060010190565b602081525f6119e96020830184612399565b5f67ffffffffffffffff8084168061263157634e487b7160e01b5f52601260045260245ffd5b92169190910492915050565b6054811061265957634e487b7160e01b5f52602160045260245ffd5b9052565b828152604081016119e9602083018461263d565b5f60208284031215612681575f80fd5b5051919050565b5f815180845260208085019450602084015f5b8381101561221a5781518752958201959082019060010161269b565b602081525f6119e96020830184612688565b838152606060208201525f6126e16060830185612688565b905063ffffffff60e01b8316604083015294935050505056feed8d60e34876f751cc8b014c560745351147d9de11b9347c854e881b128ea600a2646970667358221220d0a8a49adca32f466d46826157c1df27d780fb1487f45c6c3f1ee5598811cdc364736f6c63430008180033",
  "linkReferences": {},
  "deployedLinkReferences": {}
}